{
  "contractName": "VotingSystem",
  "abi": [
    {
      "inputs": [],
      "stateMutability": "nonpayable",
      "type": "constructor"
    },
    {
      "anonymous": false,
      "inputs": [
        {
          "indexed": false,
          "internalType": "uint256",
          "name": "id",
          "type": "uint256"
        },
        {
          "indexed": false,
          "internalType": "string",
          "name": "description",
          "type": "string"
        },
        {
          "indexed": false,
          "internalType": "uint256",
          "name": "deadline",
          "type": "uint256"
        }
      ],
      "name": "ProposalCreated",
      "type": "event"
    },
    {
      "anonymous": false,
      "inputs": [
        {
          "indexed": false,
          "internalType": "uint256",
          "name": "proposalId",
          "type": "uint256"
        },
        {
          "indexed": false,
          "internalType": "address",
          "name": "voter",
          "type": "address"
        },
        {
          "indexed": false,
          "internalType": "bool",
          "name": "vote",
          "type": "bool"
        }
      ],
      "name": "VoteCasted",
      "type": "event"
    },
    {
      "anonymous": false,
      "inputs": [
        {
          "indexed": false,
          "internalType": "uint256",
          "name": "proposalId",
          "type": "uint256"
        },
        {
          "indexed": false,
          "internalType": "uint256",
          "name": "yesVotes",
          "type": "uint256"
        },
        {
          "indexed": false,
          "internalType": "uint256",
          "name": "noVotes",
          "type": "uint256"
        }
      ],
      "name": "VotingEnded",
      "type": "event"
    },
    {
      "inputs": [],
      "name": "admin",
      "outputs": [
        {
          "internalType": "address",
          "name": "",
          "type": "address"
        }
      ],
      "stateMutability": "view",
      "type": "function",
      "constant": true
    },
    {
      "inputs": [],
      "name": "proposalCount",
      "outputs": [
        {
          "internalType": "uint256",
          "name": "",
          "type": "uint256"
        }
      ],
      "stateMutability": "view",
      "type": "function",
      "constant": true
    },
    {
      "inputs": [
        {
          "internalType": "uint256",
          "name": "",
          "type": "uint256"
        }
      ],
      "name": "proposals",
      "outputs": [
        {
          "internalType": "string",
          "name": "description",
          "type": "string"
        },
        {
          "internalType": "uint256",
          "name": "deadline",
          "type": "uint256"
        },
        {
          "internalType": "uint256",
          "name": "yesVotes",
          "type": "uint256"
        },
        {
          "internalType": "uint256",
          "name": "noVotes",
          "type": "uint256"
        },
        {
          "internalType": "bool",
          "name": "votingEnded",
          "type": "bool"
        }
      ],
      "stateMutability": "view",
      "type": "function",
      "constant": true
    },
    {
      "inputs": [
        {
          "internalType": "address",
          "name": "",
          "type": "address"
        }
      ],
      "name": "shareholderTokens",
      "outputs": [
        {
          "internalType": "uint256",
          "name": "",
          "type": "uint256"
        }
      ],
      "stateMutability": "view",
      "type": "function",
      "constant": true
    },
    {
      "inputs": [
        {
          "internalType": "address",
          "name": "shareholder",
          "type": "address"
        },
        {
          "internalType": "uint256",
          "name": "amount",
          "type": "uint256"
        }
      ],
      "name": "assignTokens",
      "outputs": [],
      "stateMutability": "nonpayable",
      "type": "function"
    },
    {
      "inputs": [
        {
          "internalType": "string",
          "name": "description",
          "type": "string"
        },
        {
          "internalType": "uint256",
          "name": "duration",
          "type": "uint256"
        }
      ],
      "name": "createProposal",
      "outputs": [],
      "stateMutability": "nonpayable",
      "type": "function"
    },
    {
      "inputs": [
        {
          "internalType": "uint256",
          "name": "proposalId",
          "type": "uint256"
        },
        {
          "internalType": "bool",
          "name": "voteYes",
          "type": "bool"
        }
      ],
      "name": "vote",
      "outputs": [],
      "stateMutability": "nonpayable",
      "type": "function"
    },
    {
      "inputs": [
        {
          "internalType": "uint256",
          "name": "proposalId",
          "type": "uint256"
        }
      ],
      "name": "endVoting",
      "outputs": [],
      "stateMutability": "nonpayable",
      "type": "function"
    },
    {
      "inputs": [
        {
          "internalType": "uint256",
          "name": "proposalId",
          "type": "uint256"
        }
      ],
      "name": "getProposalResults",
      "outputs": [
        {
          "internalType": "string",
          "name": "description",
          "type": "string"
        },
        {
          "internalType": "uint256",
          "name": "yesVotes",
          "type": "uint256"
        },
        {
          "internalType": "uint256",
          "name": "noVotes",
          "type": "uint256"
        },
        {
          "internalType": "bool",
          "name": "ended",
          "type": "bool"
        }
      ],
      "stateMutability": "view",
      "type": "function",
      "constant": true
    },
    {
      "inputs": [
        {
          "internalType": "address",
          "name": "newAdmin",
          "type": "address"
        }
      ],
      "name": "transferAdmin",
      "outputs": [],
      "stateMutability": "nonpayable",
      "type": "function"
    }
  ],
  "bytecode": "0x6080604052348015600e575f80fd5b50335f806101000a81548173ffffffffffffffffffffffffffffffffffffffff021916908373ffffffffffffffffffffffffffffffffffffffff16021790555061173a8061005b5f395ff3fe608060405234801561000f575f80fd5b506004361061009c575f3560e01c8063649f89a511610064578063649f89a51461016f57806375829def1461018b578063c9d27afe146101a7578063da35c664146101c3578063f851a440146101e15761009c565b8063013cf08b146100a057806307e5678c146100d457806335facf78146101045780634d7edc15146101205780635bdcd0081461013c575b5f80fd5b6100ba60048036038101906100b59190610bb4565b6101ff565b6040516100cb959493929190610c78565b60405180910390f35b6100ee60048036038101906100e99190610d2a565b6102c3565b6040516100fb9190610d55565b60405180910390f35b61011e60048036038101906101199190610e9a565b6102d8565b005b61013a60048036038101906101359190610ef4565b610463565b005b61015660048036038101906101519190610bb4565b610536565b6040516101669493929190610f32565b60405180910390f35b61018960048036038101906101849190610bb4565b610644565b005b6101a560048036038101906101a09190610d2a565b61081a565b005b6101c160048036038101906101bc9190610fa6565b610957565b005b6101cb610b47565b6040516101d89190610d55565b60405180910390f35b6101e9610b4d565b6040516101f69190610ff3565b60405180910390f35b6002602052805f5260405f205f91509050805f01805461021e90611039565b80601f016020809104026020016040519081016040528092919081815260200182805461024a90611039565b80156102955780601f1061026c57610100808354040283529160200191610295565b820191905f5260205f20905b81548152906001019060200180831161027857829003601f168201915b505050505090806001015490806002015490806003015490806004015f9054906101000a900460ff16905085565b6001602052805f5260405f205f915090505481565b5f8054906101000a900473ffffffffffffffffffffffffffffffffffffffff1673ffffffffffffffffffffffffffffffffffffffff163373ffffffffffffffffffffffffffffffffffffffff1614610365576040517f08c379a000000000000000000000000000000000000000000000000000000000815260040161035c906110d9565b60405180910390fd5b6040518060a0016040528083815260200182426103829190611124565b81526020015f81526020015f81526020015f151581525060025f60035481526020019081526020015f205f820151815f0190816103bf91906112f4565b506020820151816001015560408201518160020155606082015181600301556080820151816004015f6101000a81548160ff0219169083151502179055509050507ff5dc0da9afa6d080780a49fd8c680f03d2ddf3c067cd6d0c85360c096644d2d36003548383426104319190611124565b604051610440939291906113c3565b60405180910390a160035f81548092919061045a906113ff565b91905055505050565b5f8054906101000a900473ffffffffffffffffffffffffffffffffffffffff1673ffffffffffffffffffffffffffffffffffffffff163373ffffffffffffffffffffffffffffffffffffffff16146104f0576040517f08c379a00000000000000000000000000000000000000000000000000000000081526004016104e7906110d9565b60405180910390fd5b8060015f8473ffffffffffffffffffffffffffffffffffffffff1673ffffffffffffffffffffffffffffffffffffffff1681526020019081526020015f20819055505050565b60605f805f8060025f8781526020019081526020015f206040518060a00160405290815f8201805461056790611039565b80601f016020809104026020016040519081016040528092919081815260200182805461059390611039565b80156105de5780601f106105b5576101008083540402835291602001916105de565b820191905f5260205f20905b8154815290600101906020018083116105c157829003601f168201915b50505050508152602001600182015481526020016002820154815260200160038201548152602001600482015f9054906101000a900460ff1615151515815250509050805f01518160400151826060015183608001519450945094509450509193509193565b5f8054906101000a900473ffffffffffffffffffffffffffffffffffffffff1673ffffffffffffffffffffffffffffffffffffffff163373ffffffffffffffffffffffffffffffffffffffff16146106d1576040517f08c379a00000000000000000000000000000000000000000000000000000000081526004016106c8906110d9565b60405180910390fd5b60025f8281526020019081526020015f20600101544211610727576040517f08c379a000000000000000000000000000000000000000000000000000000000815260040161071e90611490565b60405180910390fd5b60025f8281526020019081526020015f206004015f9054906101000a900460ff1615610788576040517f08c379a000000000000000000000000000000000000000000000000000000000815260040161077f906114f8565b60405180910390fd5b600160025f8381526020019081526020015f206004015f6101000a81548160ff0219169083151502179055507fcea89ec8feb1022162fb57e69a2bb2c4774289bcc281c3e4ff611d3a63ee6e088160025f8481526020019081526020015f206002015460025f8581526020019081526020015f206003015460405161080f93929190611516565b60405180910390a150565b5f8054906101000a900473ffffffffffffffffffffffffffffffffffffffff1673ffffffffffffffffffffffffffffffffffffffff163373ffffffffffffffffffffffffffffffffffffffff16146108a7576040517f08c379a000000000000000000000000000000000000000000000000000000000815260040161089e906110d9565b60405180910390fd5b5f73ffffffffffffffffffffffffffffffffffffffff168173ffffffffffffffffffffffffffffffffffffffff1603610915576040517f08c379a000000000000000000000000000000000000000000000000000000000815260040161090c906115bb565b60405180910390fd5b805f806101000a81548173ffffffffffffffffffffffffffffffffffffffff021916908373ffffffffffffffffffffffffffffffffffffffff16021790555050565b8160025f8281526020019081526020015f206001015442106109ae576040517f08c379a00000000000000000000000000000000000000000000000000000000081526004016109a590611649565b60405180910390fd5b5f60015f3373ffffffffffffffffffffffffffffffffffffffff1673ffffffffffffffffffffffffffffffffffffffff1681526020019081526020015f205411610a2d576040517f08c379a0000000000000000000000000000000000000000000000000000000008152600401610a24906116b1565b60405180910390fd5b8115610a9f5760015f3373ffffffffffffffffffffffffffffffffffffffff1673ffffffffffffffffffffffffffffffffffffffff1681526020019081526020015f205460025f8581526020019081526020015f206002015f828254610a939190611124565b92505081905550610b07565b60015f3373ffffffffffffffffffffffffffffffffffffffff1673ffffffffffffffffffffffffffffffffffffffff1681526020019081526020015f205460025f8581526020019081526020015f206003015f828254610aff9190611124565b925050819055505b7f5aaa9aad7433112662b9e5ae23b96ed62b00035f413ab908c55607284e0804e2833384604051610b3a939291906116cf565b60405180910390a1505050565b60035481565b5f8054906101000a900473ffffffffffffffffffffffffffffffffffffffff1681565b5f604051905090565b5f80fd5b5f80fd5b5f819050919050565b610b9381610b81565b8114610b9d575f80fd5b50565b5f81359050610bae81610b8a565b92915050565b5f60208284031215610bc957610bc8610b79565b5b5f610bd684828501610ba0565b91505092915050565b5f81519050919050565b5f82825260208201905092915050565b8281835e5f83830152505050565b5f601f19601f8301169050919050565b5f610c2182610bdf565b610c2b8185610be9565b9350610c3b818560208601610bf9565b610c4481610c07565b840191505092915050565b610c5881610b81565b82525050565b5f8115159050919050565b610c7281610c5e565b82525050565b5f60a0820190508181035f830152610c908188610c17565b9050610c9f6020830187610c4f565b610cac6040830186610c4f565b610cb96060830185610c4f565b610cc66080830184610c69565b9695505050505050565b5f73ffffffffffffffffffffffffffffffffffffffff82169050919050565b5f610cf982610cd0565b9050919050565b610d0981610cef565b8114610d13575f80fd5b50565b5f81359050610d2481610d00565b92915050565b5f60208284031215610d3f57610d3e610b79565b5b5f610d4c84828501610d16565b91505092915050565b5f602082019050610d685f830184610c4f565b92915050565b5f80fd5b5f80fd5b7f4e487b71000000000000000000000000000000000000000000000000000000005f52604160045260245ffd5b610dac82610c07565b810181811067ffffffffffffffff82111715610dcb57610dca610d76565b5b80604052505050565b5f610ddd610b70565b9050610de98282610da3565b919050565b5f67ffffffffffffffff821115610e0857610e07610d76565b5b610e1182610c07565b9050602081019050919050565b828183375f83830152505050565b5f610e3e610e3984610dee565b610dd4565b905082815260208101848484011115610e5a57610e59610d72565b5b610e65848285610e1e565b509392505050565b5f82601f830112610e8157610e80610d6e565b5b8135610e91848260208601610e2c565b91505092915050565b5f8060408385031215610eb057610eaf610b79565b5b5f83013567ffffffffffffffff811115610ecd57610ecc610b7d565b5b610ed985828601610e6d565b9250506020610eea85828601610ba0565b9150509250929050565b5f8060408385031215610f0a57610f09610b79565b5b5f610f1785828601610d16565b9250506020610f2885828601610ba0565b9150509250929050565b5f6080820190508181035f830152610f4a8187610c17565b9050610f596020830186610c4f565b610f666040830185610c4f565b610f736060830184610c69565b95945050505050565b610f8581610c5e565b8114610f8f575f80fd5b50565b5f81359050610fa081610f7c565b92915050565b5f8060408385031215610fbc57610fbb610b79565b5b5f610fc985828601610ba0565b9250506020610fda85828601610f92565b9150509250929050565b610fed81610cef565b82525050565b5f6020820190506110065f830184610fe4565b92915050565b7f4e487b71000000000000000000000000000000000000000000000000000000005f52602260045260245ffd5b5f600282049050600182168061105057607f821691505b6020821081036110635761106261100c565b5b50919050565b7f4f6e6c79207468652061646d696e2063616e20706572666f726d2074686973205f8201527f616374696f6e0000000000000000000000000000000000000000000000000000602082015250565b5f6110c3602683610be9565b91506110ce82611069565b604082019050919050565b5f6020820190508181035f8301526110f0816110b7565b9050919050565b7f4e487b71000000000000000000000000000000000000000000000000000000005f52601160045260245ffd5b5f61112e82610b81565b915061113983610b81565b9250828201905080821115611151576111506110f7565b5b92915050565b5f819050815f5260205f209050919050565b5f6020601f8301049050919050565b5f82821b905092915050565b5f600883026111b37fffffffffffffffffffffffffffffffffffffffffffffffffffffffffffffffff82611178565b6111bd8683611178565b95508019841693508086168417925050509392505050565b5f819050919050565b5f6111f86111f36111ee84610b81565b6111d5565b610b81565b9050919050565b5f819050919050565b611211836111de565b61122561121d826111ff565b848454611184565b825550505050565b5f90565b61123961122d565b611244818484611208565b505050565b5b818110156112675761125c5f82611231565b60018101905061124a565b5050565b601f8211156112ac5761127d81611157565b61128684611169565b81016020851015611295578190505b6112a96112a185611169565b830182611249565b50505b505050565b5f82821c905092915050565b5f6112cc5f19846008026112b1565b1980831691505092915050565b5f6112e483836112bd565b9150826002028217905092915050565b6112fd82610bdf565b67ffffffffffffffff81111561131657611315610d76565b5b6113208254611039565b61132b82828561126b565b5f60209050601f83116001811461135c575f841561134a578287015190505b61135485826112d9565b8655506113bb565b601f19841661136a86611157565b5f5b828110156113915784890151825560018201915060208501945060208101905061136c565b868310156113ae57848901516113aa601f8916826112bd565b8355505b6001600288020188555050505b505050505050565b5f6060820190506113d65f830186610c4f565b81810360208301526113e88185610c17565b90506113f76040830184610c4f565b949350505050565b5f61140982610b81565b91507fffffffffffffffffffffffffffffffffffffffffffffffffffffffffffffffff820361143b5761143a6110f7565b5b600182019050919050565b7f566f74696e6720706572696f64206e6f7420796574206f7665720000000000005f82015250565b5f61147a601a83610be9565b915061148582611446565b602082019050919050565b5f6020820190508181035f8301526114a78161146e565b9050919050565b7f566f74696e672068617320616c726561647920656e64656400000000000000005f82015250565b5f6114e2601883610be9565b91506114ed826114ae565b602082019050919050565b5f6020820190508181035f83015261150f816114d6565b9050919050565b5f6060820190506115295f830186610c4f565b6115366020830185610c4f565b6115436040830184610c4f565b949350505050565b7f4e65772061646d696e20616464726573732063616e6e6f74206265207a65726f5f8201527f2061646472657373000000000000000000000000000000000000000000000000602082015250565b5f6115a5602883610be9565b91506115b08261154b565b604082019050919050565b5f6020820190508181035f8301526115d281611599565b9050919050565b7f566f74696e672068617320656e64656420666f7220746869732070726f706f735f8201527f616c000000000000000000000000000000000000000000000000000000000000602082015250565b5f611633602283610be9565b915061163e826115d9565b604082019050919050565b5f6020820190508181035f83015261166081611627565b9050919050565b7f596f7520646f206e6f74206861766520766f74696e67207269676874730000005f82015250565b5f61169b601d83610be9565b91506116a682611667565b602082019050919050565b5f6020820190508181035f8301526116c88161168f565b9050919050565b5f6060820190506116e25f830186610c4f565b6116ef6020830185610fe4565b6116fc6040830184610c69565b94935050505056fea2646970667358221220a384f1554331947507ec3bb80d1ebeaaadf7d51a96924988003d446e0e9b254764736f6c634300081a0033",
  "immutableReferences": {},
  "source": "pragma solidity ^0.8.26;\n\ncontract VotingSystem {\n\n    struct Proposal {\n        string description;\n        uint deadline;\n        uint yesVotes;\n        uint noVotes;\n        bool votingEnded;\n    }\n\n    // Admin address\n    address public admin;\n    \n    // Mapping shareholder addresses to their token balance\n    mapping(address => uint) public shareholderTokens;\n    \n    // Mapping for proposals\n    mapping(uint => Proposal) public proposals;\n    uint public proposalCount;  // Keeps track of proposals\n\n    // Events for logging\n    event ProposalCreated(uint id, string description, uint deadline);\n    event VoteCasted(uint proposalId, address voter, bool vote);\n    event VotingEnded(uint proposalId, uint yesVotes, uint noVotes);\n    \n    // Modifier to check if the sender is the admin\n    modifier onlyAdmin() {\n        require(msg.sender == admin, \"Only the admin can perform this action\");\n        _;\n    }\n    \n    // Modifier to check if a proposal is still accepting votes\n    modifier onlyDuringVoting(uint proposalId) {\n        require(block.timestamp < proposals[proposalId].deadline, \"Voting has ended for this proposal\");\n        _;\n    }\n    \n    // Modifier to check if the user is a shareholder\n    modifier onlyShareholders() {\n        require(shareholderTokens[msg.sender] > 0, \"You do not have voting rights\");\n        _;\n    }\n\n    // Constructor to initialize the admin\n    constructor() {\n        admin = msg.sender;  // The deployer of the contract is the admin\n    }\n\n    // Admin function to assign tokens to shareholders\n    function assignTokens(address shareholder, uint amount) public onlyAdmin {\n        shareholderTokens[shareholder] = amount;\n    }\n\n    // Admin function to create a proposal\n    function createProposal(string memory description, uint duration) public onlyAdmin {\n        proposals[proposalCount] = Proposal({\n            description: description,\n            deadline: block.timestamp + duration,\n            yesVotes: 0,\n            noVotes: 0,\n            votingEnded: false\n        });\n        emit ProposalCreated(proposalCount, description, block.timestamp + duration);\n        proposalCount++;\n    }\n\n    // Shareholder function to cast a vote on a proposal\n    function vote(uint proposalId, bool voteYes) public onlyDuringVoting(proposalId) onlyShareholders {\n        if (voteYes) {\n            proposals[proposalId].yesVotes += shareholderTokens[msg.sender];\n        } else {\n            proposals[proposalId].noVotes += shareholderTokens[msg.sender];\n        }\n        emit VoteCasted(proposalId, msg.sender, voteYes);\n    }\n\n    // Admin function to end voting manually (can be automated by checking time)\n    function endVoting(uint proposalId) public onlyAdmin {\n        require(block.timestamp > proposals[proposalId].deadline, \"Voting period not yet over\");\n        require(!proposals[proposalId].votingEnded, \"Voting has already ended\");\n        \n        proposals[proposalId].votingEnded = true;\n        emit VotingEnded(proposalId, proposals[proposalId].yesVotes, proposals[proposalId].noVotes);\n    }\n\n    // Function to get the result of a proposal\n    function getProposalResults(uint proposalId) public view returns (string memory description, uint yesVotes, uint noVotes, bool ended) {\n        Proposal memory p = proposals[proposalId];\n        return (p.description, p.yesVotes, p.noVotes, p.votingEnded);\n    }\n\n    // Admin function to transfer admin privileges to a new address\n    function transferAdmin(address newAdmin) public onlyAdmin {\n        require(newAdmin != address(0), \"New admin address cannot be zero address\");\n        admin = newAdmin;\n    }\n}\n",
  "sourcePath": "/Users/elias/Desktop/blockchain-voting-system/contracts/VotingSystem.sol",
  "compiler": {
    "name": "solc",
    "version": "0.8.26+commit.8a97fa7a.Emscripten.clang"
  },
  "schemaVersion": "3.4.16",
  "updatedAt": "2024-10-18T08:00:55.185Z",
  "networkType": "ethereum",
  "devdoc": {
    "kind": "dev",
    "methods": {},
    "version": 1
  },
  "userdoc": {
    "kind": "user",
    "methods": {},
    "version": 1
  }
}